{
  "contractName": "Splitter",
  "abi": [
    {
      "constant": true,
      "inputs": [
        {
          "name": "",
          "type": "address"
        }
      ],
      "name": "balances",
      "outputs": [
        {
          "name": "",
          "type": "uint256"
        }
      ],
      "payable": false,
      "stateMutability": "view",
      "type": "function"
    },
    {
      "constant": true,
      "inputs": [],
      "name": "owner",
      "outputs": [
        {
          "name": "",
          "type": "address"
        }
      ],
      "payable": false,
      "stateMutability": "view",
      "type": "function"
    },
    {
      "constant": true,
      "inputs": [
        {
          "name": "",
          "type": "uint256"
        }
      ],
      "name": "actors",
      "outputs": [
        {
          "name": "account",
          "type": "address"
        },
        {
          "name": "percentage",
          "type": "uint256"
        }
      ],
      "payable": false,
      "stateMutability": "view",
      "type": "function"
    },
    {
      "constant": true,
      "inputs": [
        {
          "name": "",
          "type": "address"
        }
      ],
      "name": "percentages",
      "outputs": [
        {
          "name": "",
          "type": "uint256"
        }
      ],
      "payable": false,
      "stateMutability": "view",
      "type": "function"
    },
    {
      "constant": true,
      "inputs": [],
      "name": "splitterAddress",
      "outputs": [
        {
          "name": "",
          "type": "address"
        }
      ],
      "payable": false,
      "stateMutability": "view",
      "type": "function"
    },
    {
      "constant": true,
      "inputs": [
        {
          "name": "",
          "type": "address"
        }
      ],
      "name": "addresstoActor",
      "outputs": [
        {
          "name": "account",
          "type": "address"
        },
        {
          "name": "percentage",
          "type": "uint256"
        }
      ],
      "payable": false,
      "stateMutability": "view",
      "type": "function"
    },
    {
      "inputs": [
        {
          "name": "_owner",
          "type": "address"
        }
      ],
      "payable": false,
      "stateMutability": "nonpayable",
      "type": "constructor"
    },
    {
      "payable": true,
      "stateMutability": "payable",
      "type": "fallback"
    },
    {
      "constant": false,
      "inputs": [
        {
          "name": "_actor",
          "type": "address"
        },
        {
          "name": "_percentage",
          "type": "uint256"
        }
      ],
      "name": "createActor",
      "outputs": [],
      "payable": false,
      "stateMutability": "nonpayable",
      "type": "function"
    },
    {
      "constant": false,
      "inputs": [
        {
          "name": "value",
          "type": "uint256"
        }
      ],
      "name": "splitMoney",
      "outputs": [],
      "payable": false,
      "stateMutability": "nonpayable",
      "type": "function"
    }
  ],
  "bytecode": "0x6080604052600060025534801561001557600080fd5b506040516020806108d38339810180604052602081101561003557600080fd5b8101908080519060200190929190505050806000806101000a81548173ffffffffffffffffffffffffffffffffffffffff021916908373ffffffffffffffffffffffffffffffffffffffff1602179055505061083d806100966000396000f3fe60806040526004361061008d576000357c0100000000000000000000000000000000000000000000000000000000900463ffffffff1680628454331461009857806327e235e3146100f35780638da5cb5b1461015857806393c0e83a146101af5780639d592c6614610231578063e4d817c514610296578063e9185982146102ed578063f3691d0414610385575b610096346103c0565b005b3480156100a457600080fd5b506100f1600480360360408110156100bb57600080fd5b81019080803573ffffffffffffffffffffffffffffffffffffffff1690602001909291908035906020019092919050505061049a565b005b3480156100ff57600080fd5b506101426004803603602081101561011657600080fd5b81019080803573ffffffffffffffffffffffffffffffffffffffff169060200190929190505050610616565b6040518082815260200191505060405180910390f35b34801561016457600080fd5b5061016d61062e565b604051808273ffffffffffffffffffffffffffffffffffffffff1673ffffffffffffffffffffffffffffffffffffffff16815260200191505060405180910390f35b3480156101bb57600080fd5b506101e8600480360360208110156101d257600080fd5b8101908080359060200190929190505050610653565b604051808373ffffffffffffffffffffffffffffffffffffffff1673ffffffffffffffffffffffffffffffffffffffff1681526020018281526020019250505060405180910390f35b34801561023d57600080fd5b506102806004803603602081101561025457600080fd5b81019080803573ffffffffffffffffffffffffffffffffffffffff1690602001909291905050506106a6565b6040518082815260200191505060405180910390f35b3480156102a257600080fd5b506102ab6106be565b604051808273ffffffffffffffffffffffffffffffffffffffff1673ffffffffffffffffffffffffffffffffffffffff16815260200191505060405180910390f35b3480156102f957600080fd5b5061033c6004803603602081101561031057600080fd5b81019080803573ffffffffffffffffffffffffffffffffffffffff1690602001909291905050506106e4565b604051808373ffffffffffffffffffffffffffffffffffffffff1673ffffffffffffffffffffffffffffffffffffffff1681526020018281526020019250505060405180910390f35b34801561039157600080fd5b506103be600480360360208110156103a857600080fd5b81019080803590602001909291905050506103c0565b005b60008090505b6006805490508110156104965760006103ff836006848154811015156103e857fe5b906000526020600020906002020160010154610728565b905060068281548110151561041057fe5b906000526020600020906002020160000160009054906101000a900473ffffffffffffffffffffffffffffffffffffffff1673ffffffffffffffffffffffffffffffffffffffff166108fc829081150290604051600060405180830381858888f19350505050158015610487573d6000803e3d6000fd5b505080806001019150506103c6565b5050565b60006104b18260025461075890919063ffffffff16565b905060648111151515610552576040517f08c379a00000000000000000000000000000000000000000000000000000000081526004018080602001828103825260268152602001807f70657263656e746167652068617320746f206265206265747765656e2031206181526020017f6e6420313030000000000000000000000000000000000000000000000000000081525060400191505060405180910390fd5b61055a6107e1565b60408051908101604052808573ffffffffffffffffffffffffffffffffffffffff168152602001848152509050816002819055506006819080600181540180825580915050906001820390600052602060002090600202016000909192909190915060008201518160000160006101000a81548173ffffffffffffffffffffffffffffffffffffffff021916908373ffffffffffffffffffffffffffffffffffffffff1602179055506020820151816001015550505050505050565b60036020528060005260406000206000915090505481565b6000809054906101000a900473ffffffffffffffffffffffffffffffffffffffff1681565b60068181548110151561066257fe5b90600052602060002090600202016000915090508060000160009054906101000a900473ffffffffffffffffffffffffffffffffffffffff16908060010154905082565b60046020528060005260406000206000915090505481565b600160009054906101000a900473ffffffffffffffffffffffffffffffffffffffff1681565b60056020528060005260406000206000915090508060000160009054906101000a900473ffffffffffffffffffffffffffffffffffffffff16908060010154905082565b60006107506064610742848661077990919063ffffffff16565b6107b790919063ffffffff16565b905092915050565b600080828401905083811015151561076f57600080fd5b8091505092915050565b60008083141561078c57600090506107b1565b6000828402905082848281151561079f57fe5b041415156107ac57600080fd5b809150505b92915050565b600080821115156107c757600080fd5b600082848115156107d457fe5b0490508091505092915050565b6040805190810160405280600073ffffffffffffffffffffffffffffffffffffffff16815260200160008152509056fea165627a7a72305820c05d71648789dd5ccd5dfe6127722c599435d8bd569929cb56b3c8d27a14babd0029",
  "source": "pragma solidity ^0.5.0;\n\nimport '../node_modules/openzeppelin-solidity/contracts/math/SafeMath.sol';\nimport '../node_modules/openzeppelin-solidity/contracts/ownership/Ownable.sol';\n\ncontract Splitter{\n\n    using SafeMath for uint256;\n\n    struct Actor{\n        address payable account; \n        uint percentage;\n    }\n    \n    address public owner;\n    address public splitterAddress;\n    uint currentTotalPercentage = 0;\n    mapping(address => uint) public balances;\n    mapping(address => uint) public percentages;   \n    mapping(address => Actor) public addresstoActor;\n    Actor[] public actors;\n\n    constructor(address _owner) public {\n        owner = _owner;\n    } \n\n    function createActor(address payable _actor, uint _percentage) public {\n        uint nextPercentage = currentTotalPercentage.add(_percentage);\n        require(nextPercentage <= 100,\"percentage has to be between 1 and 100\");\n        Actor memory actor = Actor(_actor,_percentage);\n        currentTotalPercentage = nextPercentage;\n        actors.push(actor);\n    }\n\n    function splitMoney(uint value) public {\n        for (uint index = 0; index < actors.length; index++) {\n            uint amountToTransfer = split(value, actors[index].percentage);\n            actors[index].account.transfer(amountToTransfer);\n        }\n    }\n\n     function split(uint _amount, uint _percentage) private pure returns(uint){\n        return _amount.mul(_percentage).div(100);\n    }\n\n    function restSplit(uint _number, uint _percentageOwner, uint _percentagePartner) private pure returns(uint){\n        uint hundred = 100;\n        uint percentage = hundred.sub(_percentageOwner.add(_percentagePartner));\n        return _number.mul(percentage).div(100);\n    }\n\n    function() external payable {\n        splitMoney(msg.value);\n    }\n}\n",
  "sourcePath": "/home/crisgarner/Projects/ETHDenver/TangerineCoffee/contracts/Splitter.sol",
  "compiler": {
    "name": "solc",
    "version": "0.5.0+commit.1d4f565a.Emscripten.clang"
  },
  "schemaVersion": "3.0.0",
  "updatedAt": "2019-02-16T22:57:34.667Z",
  "devdoc": {
    "methods": {}
  },
  "userdoc": {
    "methods": {}
  }
}