{
  "contractName": "Splitter",
  "abi": [
    {
      "constant": true,
      "inputs": [
        {
          "name": "",
          "type": "address"
        }
      ],
      "name": "balances",
      "outputs": [
        {
          "name": "",
          "type": "uint256"
        }
      ],
      "payable": false,
      "stateMutability": "view",
      "type": "function"
    },
    {
      "constant": true,
      "inputs": [],
      "name": "owner",
      "outputs": [
        {
          "name": "",
          "type": "address"
        }
      ],
      "payable": false,
      "stateMutability": "view",
      "type": "function"
    },
    {
      "constant": true,
      "inputs": [
        {
          "name": "",
          "type": "uint256"
        }
      ],
      "name": "actors",
      "outputs": [
        {
          "name": "account",
          "type": "address"
        },
        {
          "name": "percentage",
          "type": "uint256"
        }
      ],
      "payable": false,
      "stateMutability": "view",
      "type": "function"
    },
    {
      "constant": true,
      "inputs": [
        {
          "name": "",
          "type": "address"
        }
      ],
      "name": "percentages",
      "outputs": [
        {
          "name": "",
          "type": "uint256"
        }
      ],
      "payable": false,
      "stateMutability": "view",
      "type": "function"
    },
    {
      "constant": true,
      "inputs": [],
      "name": "splitterAddress",
      "outputs": [
        {
          "name": "",
          "type": "address"
        }
      ],
      "payable": false,
      "stateMutability": "view",
      "type": "function"
    },
    {
      "constant": true,
      "inputs": [
        {
          "name": "",
          "type": "address"
        }
      ],
      "name": "addresstoActor",
      "outputs": [
        {
          "name": "account",
          "type": "address"
        },
        {
          "name": "percentage",
          "type": "uint256"
        }
      ],
      "payable": false,
      "stateMutability": "view",
      "type": "function"
    },
    {
      "inputs": [
        {
          "name": "_owner",
          "type": "address"
        }
      ],
      "payable": false,
      "stateMutability": "nonpayable",
      "type": "constructor"
    },
    {
      "payable": true,
      "stateMutability": "payable",
      "type": "fallback"
    },
    {
      "constant": false,
      "inputs": [
        {
          "name": "_actor",
          "type": "address"
        },
        {
          "name": "_percentage",
          "type": "uint256"
        }
      ],
      "name": "createActor",
      "outputs": [],
      "payable": false,
      "stateMutability": "nonpayable",
      "type": "function"
    },
    {
      "constant": false,
      "inputs": [
        {
          "name": "value",
          "type": "uint256"
        }
      ],
      "name": "splitMoney",
      "outputs": [],
      "payable": false,
      "stateMutability": "nonpayable",
      "type": "function"
    }
  ],
  "bytecode": "0x6080604052600060025534801561001557600080fd5b50604051602080610a2b8339810180604052602081101561003557600080fd5b8101908080519060200190929190505050806000806101000a81548173ffffffffffffffffffffffffffffffffffffffff021916908373ffffffffffffffffffffffffffffffffffffffff16021790555050610995806100966000396000f3fe60806040526004361061008d576000357c0100000000000000000000000000000000000000000000000000000000900463ffffffff1680628454331461009857806327e235e3146100f35780638da5cb5b1461015857806393c0e83a146101af5780639d592c6614610231578063e4d817c514610296578063e9185982146102ed578063f3691d0414610385575b610096346103c0565b005b3480156100a457600080fd5b506100f1600480360360408110156100bb57600080fd5b81019080803573ffffffffffffffffffffffffffffffffffffffff16906020019092919080359060200190929190505050610548565b005b3480156100ff57600080fd5b506101426004803603602081101561011657600080fd5b81019080803573ffffffffffffffffffffffffffffffffffffffff16906020019092919050505061076e565b6040518082815260200191505060405180910390f35b34801561016457600080fd5b5061016d610786565b604051808273ffffffffffffffffffffffffffffffffffffffff1673ffffffffffffffffffffffffffffffffffffffff16815260200191505060405180910390f35b3480156101bb57600080fd5b506101e8600480360360208110156101d257600080fd5b81019080803590602001909291905050506107ab565b604051808373ffffffffffffffffffffffffffffffffffffffff1673ffffffffffffffffffffffffffffffffffffffff1681526020018281526020019250505060405180910390f35b34801561023d57600080fd5b506102806004803603602081101561025457600080fd5b81019080803573ffffffffffffffffffffffffffffffffffffffff1690602001909291905050506107fe565b6040518082815260200191505060405180910390f35b3480156102a257600080fd5b506102ab610816565b604051808273ffffffffffffffffffffffffffffffffffffffff1673ffffffffffffffffffffffffffffffffffffffff16815260200191505060405180910390f35b3480156102f957600080fd5b5061033c6004803603602081101561031057600080fd5b81019080803573ffffffffffffffffffffffffffffffffffffffff16906020019092919050505061083c565b604051808373ffffffffffffffffffffffffffffffffffffffff1673ffffffffffffffffffffffffffffffffffffffff1681526020018281526020019250505060405180910390f35b34801561039157600080fd5b506103be600480360360208110156103a857600080fd5b81019080803590602001909291905050506103c0565b005b600081905060008090505b6006805490508110156104a0576000610404846006848154811015156103ed57fe5b906000526020600020906002020160010154610880565b9050808303925060068281548110151561041a57fe5b906000526020600020906002020160000160009054906101000a900473ffffffffffffffffffffffffffffffffffffffff1673ffffffffffffffffffffffffffffffffffffffff166108fc829081150290604051600060405180830381858888f19350505050158015610491573d6000803e3d6000fd5b505080806001019150506103cb565b506000811180156104b657506000600680549050115b1561054457600660008154811015156104cb57fe5b906000526020600020906002020160000160009054906101000a900473ffffffffffffffffffffffffffffffffffffffff1673ffffffffffffffffffffffffffffffffffffffff166108fc829081150290604051600060405180830381858888f19350505050158015610542573d6000803e3d6000fd5b505b5050565b6000600760008473ffffffffffffffffffffffffffffffffffffffff1673ffffffffffffffffffffffffffffffffffffffff1681526020019081526020016000205414151561059657600080fd5b60006105ad826002546108b090919063ffffffff16565b9050600181101580156105c1575060648111155b151561065b576040517f08c379a00000000000000000000000000000000000000000000000000000000081526004018080602001828103825260268152602001807f70657263656e746167652068617320746f206265206265747765656e2031206181526020017f6e6420313030000000000000000000000000000000000000000000000000000081525060400191505060405180910390fd5b610663610939565b60408051908101604052808573ffffffffffffffffffffffffffffffffffffffff16815260200184815250905081600281905550600060068054905090506006829080600181540180825580915050906001820390600052602060002090600202016000909192909190915060008201518160000160006101000a81548173ffffffffffffffffffffffffffffffffffffffff021916908373ffffffffffffffffffffffffffffffffffffffff1602179055506020820151816001015550505080600760008773ffffffffffffffffffffffffffffffffffffffff1673ffffffffffffffffffffffffffffffffffffffff168152602001908152602001600020819055505050505050565b60036020528060005260406000206000915090505481565b6000809054906101000a900473ffffffffffffffffffffffffffffffffffffffff1681565b6006818154811015156107ba57fe5b90600052602060002090600202016000915090508060000160009054906101000a900473ffffffffffffffffffffffffffffffffffffffff16908060010154905082565b60046020528060005260406000206000915090505481565b600160009054906101000a900473ffffffffffffffffffffffffffffffffffffffff1681565b60056020528060005260406000206000915090508060000160009054906101000a900473ffffffffffffffffffffffffffffffffffffffff16908060010154905082565b60006108a8606461089a84866108d190919063ffffffff16565b61090f90919063ffffffff16565b905092915050565b60008082840190508381101515156108c757600080fd5b8091505092915050565b6000808314156108e45760009050610909565b600082840290508284828115156108f757fe5b0414151561090457600080fd5b809150505b92915050565b6000808211151561091f57600080fd5b6000828481151561092c57fe5b0490508091505092915050565b6040805190810160405280600073ffffffffffffffffffffffffffffffffffffffff16815260200160008152509056fea165627a7a72305820a38c7b80e44e6b94409e1419c3832047c0ca853be9d82b44b845b1c165d14c8e0029",
  "source": "pragma solidity ^0.5.0;\n\nimport '../node_modules/openzeppelin-solidity/contracts/math/SafeMath.sol';\nimport '../node_modules/openzeppelin-solidity/contracts/ownership/Ownable.sol';\n\ncontract Splitter {\n\n    using SafeMath for uint256;\n\n    struct Actor {\n        address payable account; \n        uint percentage;\n    }\n    \n    address public owner;\n    address public splitterAddress;\n    uint currentTotalPercentage = 0;\n    mapping(address => uint) public balances;\n    mapping(address => uint) public percentages;   \n    mapping(address => Actor) public addresstoActor;\n    Actor[] public actors;\n    mapping(address => uint) addressToId;\n\n    constructor(address _owner) public {\n        owner = _owner;\n    } \n\n    function createActor(address payable _actor, uint _percentage) public {\n        require(addressToId[_actor] == 0);\n        uint nextPercentage = currentTotalPercentage.add(_percentage);\n        require(nextPercentage >= 1 && nextPercentage <= 100, \"percentage has to be between 1 and 100\");\n        Actor memory actor = Actor(_actor, _percentage);\n        currentTotalPercentage = nextPercentage;\n        uint id = actors.length;\n        actors.push(actor);\n        addressToId[_actor] = id;\n    }\n\n    function splitMoney(uint value) public {\n        uint remaining = value;\n        for (uint index = 0; index < actors.length; index++) {\n            uint splittedAmount = split(value, actors[index].percentage);\n            remaining -= splittedAmount;\n            actors[index].account.transfer(splittedAmount);\n        }\n\n        if (remaining > 0 && actors.length > 0) {\n            actors[0].account.transfer(remaining);\n        }\n    }\n\n    function split(uint _amount, uint _percentage) private pure returns(uint) {\n        return _amount.mul(_percentage).div(100);\n    }\n\n    function restSplit(uint _number, uint _percentageOwner, uint _percentagePartner) private pure returns(uint){\n        uint hundred = 100;\n        uint percentage = hundred.sub(_percentageOwner.add(_percentagePartner));\n        return _number.mul(percentage).div(100);\n    }\n\n    function() external payable {\n        splitMoney(msg.value);\n    }\n}\n",
  "sourcePath": "/home/crisgarner/Projects/ETHDenver/TangerineCoffee/contracts/Splitter.sol",
  "compiler": {
    "name": "solc",
    "version": "0.5.0+commit.1d4f565a.Emscripten.clang"
  },
  "schemaVersion": "3.0.0",
  "updatedAt": "2019-02-17T06:21:41.336Z",
  "devdoc": {
    "methods": {}
  },
  "userdoc": {
    "methods": {}
  }
}