{
  "contractName": "SplitterAlone",
  "abi": [
    {
      "constant": false,
      "inputs": [
        {
          "name": "amounts",
          "type": "uint256[]"
        },
        {
          "name": "addresses",
          "type": "address[]"
        }
      ],
      "name": "processSpliter",
      "outputs": [],
      "payable": true,
      "stateMutability": "payable",
      "type": "function"
    }
  ],
  "bytecode": "0x608060405234801561001057600080fd5b50610254806100206000396000f3fe608060405260043610610041576000357c0100000000000000000000000000000000000000000000000000000000900463ffffffff16806338f587b814610046575b600080fd5b6101906004803603604081101561005c57600080fd5b810190808035906020019064010000000081111561007957600080fd5b82018360208201111561008b57600080fd5b803590602001918460208302840111640100000000831117156100ad57600080fd5b919080806020026020016040519081016040528093929190818152602001838360200280828437600081840152601f19601f8201169050808301925050505050505091929192908035906020019064010000000081111561010d57600080fd5b82018360208201111561011f57600080fd5b8035906020019184602083028401116401000000008311171561014157600080fd5b919080806020026020016040519081016040528093929190818152602001838360200280828437600081840152601f19601f820116905080830192505050505050509192919290505050610192565b005b60008090505b82518110156102235781818151811015156101af57fe5b9060200190602002015173ffffffffffffffffffffffffffffffffffffffff166108fc84838151811015156101e057fe5b906020019060200201519081150290604051600060405180830381858888f19350505050158015610215573d6000803e3d6000fd5b508080600101915050610198565b50505056fea165627a7a72305820a75a5625e14b03a4738894665b725e5b9da1f77ef6ee97a1084b611b40c7aa550029",
  "source": "pragma solidity ^0.5.0;\n\ncontract SplitterAlone{\n\n    struct Actor{\n        address payable account; \n        uint amount;\n    }\n    \n    function processSpliter(uint[] memory amounts, address payable[] memory addresses)  public payable {\n        for (uint index = 0; index < amounts.length; index++) {\n              addresses[index].transfer(amounts[index]);\n        }\n     \n    }\n}\n",
  "sourcePath": "/home/crisgarner/Projects/ETHDenver/TangerineCoffee/contracts/Splitter2.sol",
  "compiler": {
    "name": "solc",
    "version": "0.5.0+commit.1d4f565a.Emscripten.clang"
  },
  "schemaVersion": "3.0.0",
  "updatedAt": "2019-02-16T22:57:34.672Z",
  "devdoc": {
    "methods": {}
  },
  "userdoc": {
    "methods": {}
  }
}